:100000000C9464000C948C000C948C000C948C0068
:100010000C948C000C948C000C948C000C948C0030
:100020000C948C000C948C000C948C000C948C0020
:100030000C948C000C948C000C948C000C948C0010
:100040000C94C0040C948C000C94FD050C944B068D
:100050000C948C000C948C000C948C000C948C00F0
:100060000C948C000C948C000000000024002700ED
:100070002A0000000000250028002B0000000000DE
:1000800023002600290004040404040404040202DA
:100090000202020203030303030301020408102007
:1000A0004080010204081020010204081020000012
:1000B0000007000201000003040600000000000029
:1000C0000000B500B707AE0011241FBECFEFD8E087
:1000D000DEBFCDBF11E0A0E0B1E0E6EFF0E102C08D
:1000E00005900D92A631B107D9F712E0A6E1B1E073
:1000F00001C01D92A138B107E1F710E0C6ECD0E0D5
:1001000004C02297FE010E946A08C23CD107C9F7C9
:100110000E940D080C946E080C940000DC0101C0D4
:100120006D9341505040E0F708958130910561F49E
:100130006F5F7F4F91F486E191E064E170E046E00B
:1001400023E00E9459030895892B39F46F5F7F4F94
:1001500021F486E191E00E944903089580E090E057
:100160006FEF7FEF0E949500089581E090E06FEFC0
:100170007FEF0E9495000895EF92FF920F931F93D7
:100180007B018C01CA01B9012BE030E040E050E076
:100190000E9446082F5F3F4F2130310539F4E0E0DF
:1001A000F0E060E070E04FEF50E040C02C303105EF
:1001B000BCF487E190E0289FB001299F700D389F23
:1001C000700D112489EE9FEF289FA001299F500DEB
:1001D000389F500D112441505F4FE0E0F0E026C001
:1001E0002D30310529F4E0E0F0E06FEF70E01CC045
:1001F000273131052CF0EFEFF0E060E070E014C043
:1002000087E190E0289FF001299FF00D389FF00DC5
:10021000112489EE9FEF289FB001299F700D389F10
:10022000700D112461507F4F40E050E08E2F0E94EE
:100230005202F701EE0FFF1FEE0FFF1FE65DFE4FAC
:1002400060837183828393831F910F91FF90EF905E
:100250000895EF92FF920F931F93CF93DF938BE557
:1002600092E00E940D078C0186E191E00E947202EB
:1002700004960817190708F470C08BE592E00E94F5
:100280003E0782379105C9F48BE592E00E943E0754
:10029000839799F48BE592E00E943E078D3E91058D
:1002A00061F481E090E0A0E0B0E0809326019093BB
:1002B0002701A0932801B0932901809126019091F4
:1002C0002701A0912801B09129010197A105B1054D
:1002D00009F5EE24FF24870112C08BE592E00E940D
:1002E0003E079C01442737FD4095542FC801B701B4
:1002F0000E94BC000894E11CF11C011D111D86E147
:1003000091E00E947202E816F90638F38BE592E05C
:100310000E943E07CAE2D1E000E010E00BC0299144
:1003200039914991599186E191E0B8010E94F50116
:100330000F5F1F4F86E191E00E94720208171907B4
:1003400070F386E191E00E948602109226011092DD
:1003500027011092280110922901DF91CF911F915E
:100360000F91FF90EF900895CF92DF92EF92FF925E
:100370000F931F93CF93DF9386E191E00E94760263
:1003800086E191E00E9486020AE211E0C0E0D0E03E
:1003900038ECC32ED12CE12CF12C07C0F801C1920E
:1003A000D192E192F1928F01219686E191E00E9433
:1003B0007202C817D90790F38BE592E040E056E946
:1003C00060E070E00E9486061092260110922701DC
:1003D0001092280110922901DF91CF911F910F9166
:1003E000FF90EF90DF90CF9008951F93CF93DF930E
:1003F000EC01888199816817790708F04FC0CA011C
:10040000AA27BB27182FBB27A52F942F832FA82FF0
:10041000422F2E81222359F130E0812F90E0FC0100
:10042000E29FC001E39F900DF29F900D1124892F50
:10043000990F990B182F8A2F90E0FC01E29FC001C1
:10044000E39F900DF29F900D1124892F990F990B26
:10045000A82F842F90E0AC01429FC001439F900DD4
:10046000529F900D1124892F990F990B482FCB0182
:10047000880F991F860F971FEF81F885E80FF91FE6
:100480008C819F012F5F3F4F80FF03C0A0831183AA
:1004900002C01083A183F90131964083DF91CF918F
:1004A0001F9108950F931F93062F10E020E030E076
:1004B000322F212F102F002750E060E070E0042B36
:1004C000152B262B372B90E0A0E0B0E0DC0199271C
:1004D0008827082B192B2A2B3B2BB801C9011F9108
:1004E0000F910895FC018081918108950F931F93CE
:1004F0008C01FC01858161E00E946905F80185811C
:1005000060E00E94A8051F910F910895EF92FF925D
:100510000F931F93DF93CF93CDB7DEB727970FB617
:10052000F894DEBF0FBECDBF8C01DC0117968D9114
:100530009C911897892B09F49FC00E940805F80127
:100540002185328543855485621B730B840B950B83
:10055000623371058105910580F3F894D8011296F4
:100560008D919C9113979F838E831796ED90FC90AD
:100570001897F70181917F01898314968C911497C4
:100580001D96ED91FC911E971F969C9181FF30C0A6
:100590008081892B8A838081909598239B838B818E
:1005A0008D8388E08C836A815B8129813C814D81C8
:1005B0008E819F81D701608327FD462F3A95408326
:1005C000452F39F0221F00C000005083000000C0FA
:1005D000F2CF38E02D9150830000019761F7D801E8
:1005E0001E96FC93EE931D9729833C834D833AC05E
:1005F0008081892B8A838081909598239B838B812E
:100600008C8388E08D836A815B8129813D814C8167
:100610008E819F81D701608327FD462F00C000C0D7
:10062000408300C000C000C000C000C05083000074
:10063000452F3A9541F0221F000000C000C000C0C5
:1006400000C000C0E8CF38E02D9100C0508300C04A
:10065000019709F7D8011E96FC93EE931D97298305
:100660003D834C839F838E8378940E940805F80114
:10067000618772878387948727960FB6F894DEBFC9
:100680000FBECDBFCF91DF911F910F91FF90EF90E3
:100690000895CF93DF93EC018F819885009711F037
:1006A0000E9428048D8160E00E946905DF91CF914E
:1006B0000895CF93DF93EC0179836883CB01880F92
:1006C000991F860F971F9B838A832C834D831886DF
:1006D0001F8250E0FA01EA57FF4FE491F0E0EE0F7D
:1006E000FF1FEE58FF4F259134913E872D874656C8
:1006F0005F4FFA0144914F870E948B0398878F8345
:10070000009731F04A815B8160E070E00E948E00CA
:10071000DF91CF9108950F931F93CF93DF93BC0187
:100720008230910510F462E070E0E0917F02F09178
:10073000800240E050E0A0E0B0E024C080819181E0
:1007400086179707D0F08617970771F482819381F7
:10075000109729F013969C938E9312972CC0909328
:10076000800280937F0227C04115510519F084173C
:10077000950718F48D01AC01EF01DF0182819381AF
:100780009C01F9013097D1F641155105F9F0CA01E4
:10079000861B970B8430910580F48A819B8101151B
:1007A000110521F0F8019383828304C090938002A5
:1007B00080937F02FE01329645C0FE01E80FF91FCB
:1007C000619371930297998388833CC080917D02E5
:1007D00090917E02892B41F4809102019091030156
:1007E00090937E0280937D02409104015091050117
:1007F0004115510541F44DB75EB7809100019091CC
:100800000101481B590B20917D0230917E02241773
:100810003507B0F4CA01821B930B8617970780F047
:10082000AB014E5F5F4F8417950750F0420F531F87
:1008300050937E0240937D02F9016193719302C04F
:10084000E0E0F0E0CF01DF91CF911F910F9108958B
:10085000CF93DF939C01009709F48FC0EC0122979E
:100860001B821A8260917F0270918002611571056E
:1008700081F488819981820F931F20917D023091AC
:100880007E022817390739F5D0937E02C0937D0286
:1008900074C0DB0140E050E0AC17BD0708F1BB833A
:1008A000AA83FE0121913191E20FF31FAE17BF071A
:1008B00079F48D919C911197280F391F2E5F3F4F2E
:1008C0003983288312968D919C9113979B838A83F9
:1008D0004115510571F4D0938002C0937F024DC041
:1008E00012968D919C911397AD01009711F0DC0148
:1008F000D3CFDA011396DC93CE931297FA012191AC
:100900003191E20FF31FCE17DF0769F488819981D7
:10091000280F391F2E5F3F4FFA01318320838A81D0
:100920009B8193838283E0E0F0E0DB0112968D915E
:100930009C911397009719F0BC01FD01F6CFAB0114
:100940004E5F5F4FDB018D919C91840F951F20912D
:100950007D0230917E022817390779F4309729F407
:100960001092800210927F0202C0138212824250C3
:10097000504050937E0240937D02DF91CF910895C5
:100980001F920F920FB60F9211242F933F938F93C4
:100990009F93AF93BF938091CE019091CF01A0918F
:1009A000D001B091D1013091D2010196A11DB11DAC
:1009B000232F2D5F2D3720F02D570196A11DB11D3E
:1009C0002093D2018093CE019093CF01A093D001C8
:1009D000B093D1018091CA019091CB01A091CC013B
:1009E000B091CD010196A11DB11D8093CA019093D4
:1009F000CB01A093CC01B093CD01BF91AF919F915A
:100A00008F913F912F910F900FBE0F901F901895CF
:100A10009FB7F8942091CA013091CB014091CC014D
:100A20005091CD0186B5A89B06C08F3F21F02F5F66
:100A30003F4F4F4F5F4F9FBF542F432F322F2227DF
:100A4000280F311D411D511D82E0220F331F441F0D
:100A5000551F8A95D1F7B901CA010895789484B5D4
:100A6000826084BD84B5816084BD85B5826085BDAA
:100A700085B5816085BDEEE6F0E080818160808390
:100A8000E1E8F0E010828081826080838081816073
:100A90008083E0E8F0E0808181608083E1EBF0E03A
:100AA000808184608083E0EBF0E0808181608083DE
:100AB000EAE7F0E0808184608083808182608083C7
:100AC0008081816080838081806880831092C100F2
:100AD0000895CF93DF93482F50E0CA0186569F4F69
:100AE000FC0134914A575F4FFA018491882369F1E0
:100AF00090E0880F991FFC01E859FF4FA591B49130
:100B0000FC01EE58FF4FC591D491662351F42FB7E5
:100B1000F8948C91932F909589238C9388818923C5
:100B20000BC0623061F42FB7F8948C91932F90959D
:100B300089238C938881832B88832FBF06C09FB71E
:100B4000F8948C91832B8C939FBFDF91CF91089564
:100B5000482F50E0CA0182559F4FFC012491CA01E1
:100B600086569F4FFC0194914A575F4FFA0134918A
:100B7000332309F440C0222351F1233071F0243093
:100B800028F42130A1F0223011F514C02630B1F044
:100B90002730C1F02430D9F404C0809180008F77D1
:100BA00003C0809180008F7D8093800010C084B549
:100BB0008F7702C084B58F7D84BD09C08091B0005D
:100BC0008F7703C08091B0008F7D8093B000E32FBA
:100BD000F0E0EE0FFF1FEE58FF4FA591B4912FB735
:100BE000F894662321F48C919095892302C08C910E
:100BF000892B8C932FBF089508951F920F920FB6E3
:100C00000F9211242F933F934F938F939F93EF93C2
:100C1000FF938091C00082FD1DC04091C6002091CD
:100C20001302309114022F5F3F4F2F733070809169
:100C30001502909116022817390771F0E0911302FE
:100C4000F0911402ED52FE4F408330931402209332
:100C5000130202C08091C600FF91EF919F918F9186
:100C60004F913F912F910F900FBE0F901F901895AD
:100C7000E0916702F0916802E05CFF4F81919191F1
:100C800020813181821B930B8F739070892B11F01F
:100C90000E94FC0508951F920F920FB60F92112427
:100CA0002F933F938F939F93EF93FF93209157023E
:100CB000309158028091590290915A0228173907B1
:100CC00031F48091C1008F7D8093C10014C0E09108
:100CD0005902F0915A02E95EFD4F2081809159023C
:100CE00090915A0201968F73907090935A0280935C
:100CF00059022093C600FF91EF919F918F913F91F0
:100D00002F910F900FBE0F901F901895AF92BF922A
:100D1000DF92EF92FF920F931F93CF93DF93EC013B
:100D20007A018B01DD24403081EE580780E06807AE
:100D300080E0780711F0DD24D39491E0A92EB12C46
:100D4000EC89FD89DD2069F0C50108A002C0880F8B
:100D5000991F0A94E2F7808360E079E08DE390E0E8
:100D600005C0108260E874E88EE190E0A801970168
:100D70000E944608215030404040504056954795CB
:100D80003795279580E12030380720F0DD2011F0DD
:100D9000DD24D6CFE889F9893083EA89FB8920836D
:100DA00019A2EE89FF89408121E030E0C9010C8C55
:100DB00002C0880F991F0A94E2F7482B4083EE89FE
:100DC000FF894081C9010D8C02C0880F991F0A94C8
:100DD000E2F7482B4083EE89FF894081C9010E8CE0
:100DE00002C0880F991F0A94E2F7482B4083EE89CE
:100DF000FF8980810F8C02C0220F331F0A94E2F713
:100E0000209528232083DF91CF911F910F91FF9090
:100E1000EF90DF90BF90AF900895DC011C96ED91AC
:100E2000FC911D97E05CFF4F219131918081918170
:100E3000281B390B2F733070C9010895DC011C96F3
:100E4000ED91FC911D97E05CFF4F20813181E054D2
:100E5000F040DF01AE5BBF4F8D919C911197281739
:100E6000390719F42FEF3FEF07C08D919C91E80FE0
:100E7000F91F8081282F30E0C9010895DC011C96FC
:100E8000ED91FC911D97E05CFF4F20813181E05492
:100E9000F040DF01AE5BBF4F8D919C9111972817F9
:100EA000390719F42FEF3FEF10C08D919C911197E6
:100EB000E80FF91F20818D919C91119701968F73F6
:100EC000907011969C938E9330E0C9010895DC01D7
:100ED00091968C919197882339F05496ED91FC91DD
:100EE0005597808186FFF9CF91961C920895CF93F4
:100EF000DF93EC01EE85FF85E05CFF4F20813181BF
:100F0000E054F0402F5F3F4F2F733070DF01AE5B36
:100F1000BF4F8D919C91119728173907D1F3E05C51
:100F2000FF4F80819181E054F040E80FF91F60830A
:100F3000EE85FF85E05CFF4F31832083EE89FF89DA
:100F4000208181E090E00F8C02C0880F991F0A94E5
:100F5000E2F7282B208381E089A3EC89FD89808139
:100F60008064808381E090E0DF91CF9108951092BA
:100F70005E0210925D0288EE93E0A0E0B0E0809304
:100F80005F0290936002A0936102B09362028AE0D4
:100F900091E090935C0280935B0283ED91E09093EB
:100FA00068028093670287E192E090936A028093DF
:100FB000690285EC90E090936C0280936B0284EC64
:100FC00090E090936E0280936D0280EC90E090939D
:100FD000700280936F0281EC90E090937202809394
:100FE000710282EC90E0909374028093730286EC1D
:100FF00090E0909376028093750284E0809377026C
:1010000083E08093780287E08093790285E0809383
:101010007A0281E080937B020895CF93DF930E9450
:101020002E050E94B401C8E3D6E00E942901209752
:10103000E1F30E943806F9CFCF92DF92EF92FF9250
:101040000F931F93CF93DF937C016B018A01C0E064
:10105000D0E00FC0D6016D916D01D701ED91FC91EB
:101060000190F081E02DC7010995C80FD91F0150EB
:1010700010400115110571F7CE01DF91CF911F913D
:101080000F91FF90EF90DF90CF900895A1E21A2E7C
:10109000AA1BBB1BFD010DC0AA1FBB1FEE1FFF1F1C
:1010A000A217B307E407F50720F0A21BB30BE40B6C
:1010B000F50B661F771F881F991F1A9469F76095B3
:1010C0007095809590959B01AC01BD01CF0108956D
:1010D000EE0FFF1F0590F491E02D099410E0C6EC8F
:1010E000D0E004C0FE010E946A082296C83CD107E5
:0610F000C9F7F894FFCFE0
:1010F6008000810200000000000077071C080D0731
:061106003E071E0767070B
:00000001FF
